:020000040800F2
:100000000050002045E50008D5310008D731000830
:1000100000000000000000000000000000000000E0
:10002000000000000000000000000000DB310008BC
:100030000000000000000000DD310008DF31000892
:1000400095E5000895E50008F731000895E50008FA
:1000500095E50008FF3100080F3200081F32000844
:1000600095E5000895E5000895E50008EF310008E2
:1000700095E5000895E5000895E5000895E5000878
:1000800095E5000895E5000895E5000800000000EA
:1000900095E5000895E5000895E5000895E5000858
:1000A00095E5000895E5000895E5000895E5000848
:1000B000E731000895E500080000000095E500081C
:1000C00010B5064C2378002B07D1054B002B02D02E
:1000D000044800E000BF0123237010BD1001002080
:1000E0000000000010F10008044B10B5002B03D0F5
:1000F0000349044800E000BF10BDC04600000000F6
:100100001401002010F1000802B4714649084900AA
:10011000095C49008E4402BC7047C04603B4714676
:10012000490840004900095E49008E4403BC7047FD
:1001300003B47146490840004900095A49008E44F9
:1001400003BC7047002243088B4274D303098B42DF
:100150005FD3030A8B4244D3030B8B4228D3030C97
:100160008B420DD3FF22090212BA030C8B4202D339
:100170001212090265D0030B8B4219D300E0090A61
:10018000C30B8B4201D3CB03C01A5241830B8B426A
:1001900001D38B03C01A5241430B8B4201D34B0353
:1001A000C01A5241030B8B4201D30B03C01A5241B8
:1001B000C30A8B4201D3CB02C01A5241830A8B423D
:1001C00001D38B02C01A5241430A8B4201D34B0226
:1001D000C01A5241030A8B4201D30B02C01A52418A
:1001E000CDD2C3098B4201D3CB01C01A524183093E
:1001F0008B4201D38B01C01A524143098B4201D378
:100200004B01C01A524103098B4201D30B01C01AA2
:100210005241C3088B4201D3CB00C01A524183081C
:100220008B4201D38B00C01A524143088B4201D349
:100230004B00C01A5241411A00D2014652411046A9
:100240007047FFE701B5002000F0F0F802BDC0469E
:100250000029F7D076E7704703460B437FD400228E
:1002600043088B4274D303098B425FD3030A8B424A
:1002700044D3030B8B4228D3030C8B420DD3FF22B4
:10028000090212BA030C8B4202D31212090265D082
:10029000030B8B4219D300E0090AC30B8B4201D335
:1002A000CB03C01A5241830B8B4201D38B03C01A7C
:1002B0005241430B8B4201D34B03C01A5241030BF3
:1002C0008B4201D30B03C01A5241C30A8B4201D3A4
:1002D000CB02C01A5241830A8B4201D38B02C01A4F
:1002E0005241430A8B4201D34B02C01A5241030AC6
:1002F0008B4201D30B02C01A5241CDD2C3098B42AB
:1003000001D3CB01C01A524183098B4201D38B0127
:10031000C01A524143098B4201D34B01C01A5241CA
:1003200003098B4201D30B01C01A5241C3088B420F
:1003300001D3CB00C01A524183088B4201D38B00FA
:10034000C01A524143088B4201D34B00C01A52419C
:10035000411A00D201465241104670475DE0CA0F73
:1003600000D04942031000D34042534000229C4633
:1003700003098B422DD3030A8B4212D3FC2289013D
:1003800012BA030A8B420CD3890192118B4208D313
:10039000890192118B4204D389013AD0921100E075
:1003A0008909C3098B4201D3CB01C01A5241830989
:1003B0008B4201D38B01C01A524143098B4201D3B6
:1003C0004B01C01A524103098B4201D30B01C01AE1
:1003D0005241C3088B4201D3CB00C01A524183085B
:1003E0008B4201D38B00C01A5241D9D243088B42B1
:1003F00001D34B00C01A5241411A00D20146634654
:1004000052415B10104601D34042002B00D54942B7
:10041000704763465B1000D3404201B5002000F0F6
:1004200005F802BD0029F8D016E770477047C046AE
:100430008446101C62468C46191C634600E0C04688
:100440001FB501F077FD002801D40021C8421FBD6F
:1004500010B501F0D1FC4042013010BD10B501F0E3
:1004600069FD002801DB002010BD012010BDC04641
:1004700010B501F05FFD002801DD002010BD012056
:1004800010BDC04610B501F0F1FC002801DC0020D1
:1004900010BD012010BDC04610B501F0E7FC0028DA
:1004A00001DA002010BD012010BDC0468446081CA2
:1004B0006146FFE71FB500F0F7FA002801D40021DC
:1004C000C8421FBD10B500F089FA4042013010BD8E
:1004D00010B500F0E9FA002801DB002010BD012072
:1004E00010BDC04610B500F0DFFA002801DD002085
:1004F00010BD012010BDC04610B500F095FA0028CF
:1005000001DC002010BD012010BDC04610B500F078
:100510008BFA002801DA002010BD012010BDC04672
:10052000002B11D1002A0FD1002900D1002802D0C0
:100530000021C943081C07B4024802A140180290D8
:1005400003BDC046E9FEFFFF03B4684601B502984B
:1005500000F03CF8019B9E4602B00CBC7047C046C0
:100560009E2110B5C905041CFFF7D0FF002803D158
:10057000201C00F097FD10BD9E21201CC90500F035
:10058000F5FB00F08FFD80231B069C466044F2E7DC
:1005900070B500220C4B04000D00FFF77DFF002812
:1005A00004D12000290002F0BDFA70BD064B0022E4
:1005B0002000290001F0A0FF02F0B4FA80231B06FE
:1005C0009C466044F1E7C0460000E041F0B5574664
:1005D0004E464546DE46E0B5040083B00D00924627
:1005E00099468B422FD82CD04946504602F0B8FB92
:1005F00029000600200002F0B3FB331A9846203B86
:100600009B4600D574E053465A4693401F0053461C
:10061000424693401E00AF4229D826D05B46A41B19
:10062000BD41002B00DA79E0002200230092019303
:1006300001235A469340019301234246934000937D
:1006400019E08242D0D900220023009201930C9B32
:10065000002B01D01C605D600098019903B03CBC88
:1006600090469946A246AB46F0BDA342D6D9002299
:100670000023009201934346002BE8D0FB07720849
:100680001A4346467B080EE0AB4201D1A2420CD889
:10069000A41A9D41012024196D410021013E241816
:1006A0004D41002E06D0AB42EED9013E24196D41DA
:1006B000002EF8D15B460098019900196941002B82
:1006C00022DB2B005A46D3402A004446E2401C005D
:1006D0005B461500002B2CDB26009E4033002600D5
:1006E0004746BE403200801A994100900191AEE722
:1006F000424620239B1A5246DA40414613004A469E
:100700008A4017001F4382E7424620239B1A2A0093
:1007100046469A402300F3401343D5E74246202340
:1007200000219B1A0022009101920122DA400192DD
:1007300082E74246202326009B1ADE402F00B44663
:10074000974066463B003343C9E7C046F0B557467D
:100750004E46DE464546E0B544024300C60F83B030
:100760000F1C640A1B0EB24653D0FF2B27D08022E9
:10077000E400D20414437F2252429046984400235E
:1007800099469B467D027800FB0F6D0A000E009390
:1007900024D0FF2846D080230021ED00DB041D4338
:1007A0007F384746381A4F460F43BF00B9463300DB
:1007B000009A874F53404A46BA5801939746002CF7
:1007C0004ED108239946F7339846FD3B9B467D0260
:1007D0007800FB0F6D0A000E0093DAD1002D26D1B0
:1007E000002001213300009A7A4F53404246101AEC
:1007F0004A460A439200BA581D009746009B2C00B7
:100800009A468B465B46022B31D15346FF2100248A
:1008100038E0002C17D10423994600239846013371
:100820009B46AFE7FF20002D0BD10221DAE728001D
:1008300002F078FA431F9D4076235B42181A00218C
:10084000AFE70321ADE7200002F06CFA431F9C40A4
:1008500076235B421B1A9846002399469B4691E7F4
:100860000C239946F3339846FC3B9B468AE7032BBF
:1008700000D1A5E05546012B00D081E001230021E5
:1008800000242B406402C905600ADB0708431843B3
:1008900003B03CBC90469946A246AB46F0BD8024CE
:1008A0000023E403FF21EDE7FF210024EAE7012311
:1008B000591A1B2966DD019A134000210024E1E743
:1008C0008023DB031C4238D01D4251D01C436402FC
:1008D000640A3300FF21D5E763016C01A3423BD2D8
:1008E0001B260021013801251F0049005B00002F55
:1008F00001DB9C4201D81B1B2943013E002EF3D192
:100900001C00631E9C410C4301007F310029CEDD99
:10091000630704D00F232340042B00D004342301A9
:1009200003D501002C4B80311C40FE290DDD012335
:10093000019AFF2113400024A4E78023DB031C431A
:100940006402640A3300FF219CE70123019AA40199
:10095000640AC9B2134095E71B1B1A260121C2E79E
:10096000009B8B469A4600244CE76302E5D50025A0
:100970008024E4032C436402640A009BFF2181E786
:100980000195C1E723002020CB40411A8C40611E15
:100990008C411C43630704D00F232340042B00D059
:1009A0000434630105D50123019A01211340002479
:1009B00068E70123019AA401640A1340002161E75A
:1009C0008023DB031C436402640A5346FF2159E77A
:1009D0004CF100088CF10008FFFFFFF770B54200F2
:1009E00045024E024C00C30F6D0A120E760A240E09
:1009F000C90F0120FF2A06D0FF2C03D0A24201D14B
:100A0000B54206D070BD002DFCD1FF2CFAD1002ECE
:100A1000F8D18B4206D00120002AF3D12800451ED0
:100A2000A841EFE70020EDE7F0B5420045024C0297
:100A3000C30F48006D0A120E640A000EC90FFF2A88
:100A40001ED0FF2821D0002A0AD16E426E41F6B294
:100A500000280FD1002C0DD10020002D09D005E079
:100A6000002801D1002C01D08B4211D00121584225
:100A70000843F0BD002EF7D0012001390843F8E704
:100A8000002DDED002204042F3E7002CDBD0F9E756
:100A90008242EBDC04DBA542E8D80020A542E8D284
:100AA0000121581E0843E4E7F0B542004D024C0016
:100AB0004602760A120EC30F6D0A240EC90FFF2AD2
:100AC00016D0FF2C18D0002A0AD170427041C0B253
:100AD000002C15D0002805D0012001390843F0BDB5
:100AE000002C13D0994214D001205B421843F6E742
:100AF0000220002EF3D1E4E70220002DEFD1E2E73F
:100B0000002DE7D10020002EE9D0EDE7002DE9D13E
:100B1000EAE7A24206DCDFDBAE4203D80020AE42A9
:100B2000DAD3DCE7012049420843D8E7F8B5574655
:100B30004E464546DE46E0B54702460088467F0AF7
:100B4000360EC40F002E47D0FF2E24D0FB00802786
:100B5000FF041F43002399469A467F3E43465D02A9
:100B60005800DB0F6D0A000E984643D0FF283BD09B
:100B7000EB0080250022ED041D437F383618731CDE
:100B800041469B464B46614013430F2B64D8754842
:100B90009B00C3589F46002F42D108239946063B2D
:100BA000FF269A46DAE74146022A28D0032A00D1D6
:100BB000CEE0012A00D0ACE0114000200022CCB2EF
:100BC0004002D205400AE407104320433CBC904653
:100BD0009946A246AB46F8BD002F15D1042399468D
:100BE000033B00269A46B9E7FF200222002DC5D01C
:100BF0000322C3E7002D19D100200122BEE7012402
:100C0000FF220C400020DBE7380002F08BF876264C
:100C1000431F9F4000237642361A99469A469DE725
:100C20000C239946093BFF269A4697E7280002F0D5
:100C300079F8431F9D4076235B42181A00229DE7F6
:100C400080200024C003FF22BAE73D005246ABE7F4
:100C50003D0021005246A7E73B0C9C462A04120C9B
:100C60002B0C1400604665463F043F0C7C43424316
:100C70005D437B43270C9B18FF18BA4203D980239E
:100C80005B029C46654424043A04240C1219930127
:100C90005C1EA3413F0C920E7D191A43AD01154312
:100CA0002B0104D501235E466A081D40154332001E
:100CB0007F32002A25DD6B0704D00F232B40042B45
:100CC00000D004352B0103D53200274B80321D4064
:100CD000FE2A94DC0124A801400AD2B20C406FE73E
:100CE0008020C003074207D0054205D128434002B7
:100CF000400A4446FF2263E738434002400AFF228D
:100D00005EE70124A31A1B2B05DD0C400022002006
:100D100056E75E46CBE72A002020DA40C31A9D4002
:100D20002B005D1EAB4113435A0704D00F221A401B
:100D3000042A00D004335A0104D5012401220C40B6
:100D400000203DE701249B01580A0C40002237E7B0
:100D500080200124C00328434002400A0C40FF22A7
:100D60002EE7C046CCF10008FFFFFFF7F0B54F4675
:100D7000D64646464400C0B5C20F47024802400A64
:100D8000844666467B0A4800C90F9A46240E150021
:100D9000DB00000E8946F600FF2800D18FE001211C
:100DA0004F464F403900914266D0221A002A00DC9B
:100DB0009DE000283DD1002E00D18BE0511E00297E
:100DC00000D0B5E001249B1B5A0144D59B019F092B
:100DD000380001F0A7FF05388740844200DD96E027
:100DE000041B3A0020200134E240041BA7403B00D2
:100DF0005F1EBB41002413435A0704D00F221A4040
:100E0000042A00D004335A0127D50134FF2C00D125
:100E100079E001229B015B0AE4B22A405B02E4050F
:100E2000580AD207204310431CBC90469946A2465C
:100E3000F0BDFF2CE0D08021C9040E431B2A7BDCCF
:100E400031002020D140821A9640721E96410E43F6
:100E50009B1B5A01BAD45A07D0D10122DF082A407D
:100E6000FF2C33D1002F00D1A8E08023DB033B43CC
:100E70005B025B0AFF24D1E7211A00294CDD002820
:100E80002AD0FF2CB8D08020C00406431B2900DDE7
:100E9000AFE030002027C840791A8E40711E8E4185
:100EA00006439B195901D6D50134FF2C00D185E0AA
:100EB00001227A491A405B080B4013439CE7002E3D
:100EC00000D070E76BE73B1EC5D100227B025B0AB6
:100ED000E4B2A3E714008FE7002E4DD0481E00288F
:100EE00057D19B1901245A01B5D50224E0E7002A05
:100EF00025D1621CD2B2012A72DD9F1B7A0135D541
:100F0000F71A0D0064E7012200232A4086E73B0020
:100F1000634A241A13406FE700296CD1611CC8B2E0
:100F200001284EDDFF2949D09B195B080C0063E7BF
:100F3000FF2A41D00A0081E701269B1B89E7002C8C
:100F40001CD0FF2821D08024E404524223431B2AD2
:100F500000DD96E01C002025D440AA1A93405A1EBA
:100F600093412343F31A04000D002DE7002F00D016
:100F70002EE700220024A9E70C003DE7002B58D003
:100F8000D243002AEED0FF28E1D13300FF240D0028
:100F900032E7FF2910D0010078E7002B6ED0FF2444
:100FA000002E00D128E780225146D203114203D0FF
:100FB0006146114200D13300FF241DE7FF240023C6
:100FC0002CE7002CE9D1002B63D0002E00D113E7D1
:100FD0009B195A0100D43EE7314A0C0013400BE73D
:100FE000002C1ED1002B2FD1002E4FD033000D002E
:100FF00002E7012655E7002C1FD1002B43D0C9433F
:1010000000290BD0FF2839D01B2944DC1C002027E5
:10101000CC40791A8B40591E8B4123439B19040005
:1010200040E7002B1AD1002E24D180270022FF0395
:101030001BE7330004000D00DEE6FF281ED08024ED
:10104000E40449422343DFE7002E00D1D4E69F1B8E
:101050007A0100D437E7F31A0D00CDE6FF24002E05
:1010600000D1C9E680225046D2031042A4D0604687
:101070001042A1D133000D00FF24BDE63300FF2450
:10108000BAE601236EE733000400B5E6002700222C
:101090001CE73300B0E60123C0E7C046FFFFFF7D39
:1010A000FFFFFFFB41024300C20F490A1B0E002055
:1010B0007E2B0DDD9D2B0CDC802000040143952B45
:1010C0000ADC9620C31AD9404842002A00D1080001
:1010D0007047034BD018FBE7963B9940F4E7C046B6
:1010E000FFFFFF7F10B5041E27D001F01BFE9E23DB
:1010F0001B1A962B0ADC9622D21A94406402640AC8
:10110000DBB26402DB05600A184310BD992B17DCC3
:101110009922D21A002A27DD94402200134C144051
:10112000510704D00F210A40042A00D00434620180
:1011300012D4A401640ADBB2E3E700230024E0E751
:10114000B9222100D21A91400A00511E8A4105217C
:10115000091ACC401443DBE7044B1C409F23A40135
:101160001B1A640ADBB2CCE72200D7E7FFFFFFFBC4
:10117000F8B54546DE4657464E460C03E0B54E00F0
:10118000C90F88460D00610A440F0C43C7001903BC
:101190005800DB0F9B464B0A510F0B43760D400D59
:1011A0001900D200D84500D1AEE0351A002D00DC80
:1011B000F6E000280FD1134300D1DBE06B1E002BBB
:1011C00000D037E1BA1A9742BF41641A7F42E41B4C
:1011D0000126170024E0C64B9E424DD080231B04FD
:1011E0001943382D00DD07E11F2D00DD38E12020F7
:1011F000431B9A460B0050468340994613004846CD
:10120000EB401843030050468240501E8241E940A3
:101210001A43BA1A611A9742A441170064420C1B80
:10122000230262D56402650A002D00D1DFE02800A8
:1012300001F078FD0300083B1F2B00DDD2E02022E7
:101240003C00D21A9D40D4409F4025439E4200DD81
:10125000C4E09E1B731C1F2B00DDF1E02022380030
:101260002900D21AD840914097402C000143781EA3
:101270008741DC4000260F437B0709D00F233B400A
:10128000042B05D03B1DBB42BF417F42E4191F0028
:1012900023022CD5964B01369E4200D19AE045465A
:1012A000944BFF081C406007760564020743240B3B
:1012B000760D00212403230B0C0D8F4A24051C43BB
:1012C0001440330523435B00ED075B082B433800D4
:1012D00019003CBC90469946A246AB46F8BD644610
:1012E000044300D111E2040067467B07C6D145469E
:1012F0006007FF080743E4087D4B9E4230D024037B
:101300007605240B760DD4E7331A9A46002B78DD48
:10131000002831D076488642AED0802000040143B8
:101320005346382B00DCE9E00A43511E8A41002174
:10133000D219BA42BF4109197C4217000C19230285
:10134000D3D56B4B01369E4200D13AE10120694B67
:101350001C407B0807401F43E007074364088BE7F6
:1013600023003B4300D1CBE180221203144324032A
:10137000240B9EE72E007FE70800104300D1B4E065
:10138000581E002800D0DEE0BA18BA429B4164180B
:101390005B42E418170001262302A6D50226D5E7F2
:1013A000002D6ED1701C4005400D012800DCF9E0D5
:1013B000B81A844687428041E51A40422D1A280215
:1013C00000D489E0D71BBA4292411C1B5242A51A95
:1013D000D84629E74546002400276AE7454CF61A17
:1013E0002C4049E73D002838854000272EE738008B
:1013F00001F098FC20301DE70A43511E8A4100216C
:1014000007E7002B00D0F3E0701C43055B0D012BB8
:1014100000DCADE0364B984200D1D1E0BA18BA42B8
:10142000BF4164187F42E419E70752081743640874
:10143000060021E72E48854200D193E01D00D0E64A
:1014400029001F3EF140202B00D18DE04022D31A0D
:101450009D402F437D1EAF4100240F43002644E7EB
:101460002B000800203BD8400300202D00D17DE058
:101470004020451BA9400A43511E8A4100211A43BE
:10148000C7E6002E50D01A4EB04257D080266B428D
:101490009946360434434B46382B00DDD6E01F2BEB
:1014A00000DD35E12026F51A2600AE40B2463E00AA
:1014B000DE40AC46350056462E436546AF407D1EA5
:1014C000AF41DC403743D71BBA4292410C1B52421A
:1014D000A41A0600D846A3E6644667462C4300D00B
:1014E000A2E600250026002706E71E00C4E6C04647
:1014F000FF070000FFFF7FFFFFFF0F801F2B63DC54
:101500002020C31A080098409C468346534610008A
:10151000D84003005846184363469A40531E9A41E8
:1015200053460243D94003E726003E4306D0EB432F
:101530009946002BC7D0944EB042ACD10C00170096
:101540000600D84698E6904B9A450BD08246E7E6CF
:10155000002800D09EE01800104300D1E9E01C00F4
:101560001700D846884E87E6002572E7002182E7FB
:1015700023003B43002E00D0ABE0002B00D1E7E07E
:101580000B00134300D177E6BA18BA42BF41641882
:101590007F42E419230200D4F2E07C4B17001C4088
:1015A000060069E620003843002ED1D100285BD127
:1015B0001C00144300D1A8E01C001700D8465BE6CD
:1015C00006000024002797E650460B002038C34051
:1015D00099465346202B00D195E0402350461B1AD4
:1015E00099400A43511E8A414B4600211A439FE607
:1015F000002E30D126003E4367D0DB439A46002BB5
:101600001CD0614EB04260D05346382B00DD96E0CE
:101610001F2B00DD9FE02026F31A26009E409C46EB
:10162000B34653463E00DE4033005E461E436346EB
:101630009F407B1E9F415346DC403743BF18974273
:10164000924164185242A418060078E627437C1E93
:10165000A741002437E74C4EB04236D080265B428B
:1016600036049A463443CFE71800104300D103E60E
:10167000B81A84466745AD41E01A6D42401B050229
:1016800000D42CE6D71BBA4292411C1B5242A41A2A
:10169000D846F1E51800104300D163E7F808670762
:1016A00007438020E4080003044208D0DD08054217
:1016B00005D1D208590711430F002C00D8467B0FE3
:1016C000E4001C43FF00304ED6E50C001700060076
:1016D000D2E5002B38D00B00134300D142E7F808C5
:1016E000670707438020E40800030442E7D0CB08E3
:1016F0000342E4D1D208490711430F001C00DEE782
:1017000000270024D5E500216BE700250027F3E53D
:101710004E462500203EF5404B462E00202B2DD076
:101720004025ED1AAC4027437C1EA74100243743D7
:10173000C9E6802400252403134E0027DCE5274357
:101740007C1EA741002479E70C0017000E4E93E59C
:101750000C00170090E556462300203EF3409946C2
:101760005346202B0ED0402356469B1B9C402743BC
:101770007C1EA7414B4600241F435FE70024D2E7AD
:101780001700B2E50024F2E7FF070000FFFF7FFF2C
:10179000F0B557464546DE464E46E0B54C000E03D2
:1017A00087B0834692461D008046360B640DCF0FEE
:1017B000002C4FD06F4B9C4235D08023420F1B042E
:1017C000F600134333439946C30098466A4B0026FC
:1017D0009C460023644403932B031B0B9B466B0026
:1017E000ED0F50465B0D01955ED0624A934253D097
:1017F0005A46D1008022400F120402430A43934606
:101800005246D1005C4A9446002263443800684046
:1018100084460290E41A16430F2E00D9B4E0574BC9
:10182000B6009B599F460300334399466CD1002371
:101830009846023308260393CEE7CB464146039AE7
:101840000197022A65D1019B4A4C9C460023002245
:1018500098466BE00300334399464ED0002E00D1EA
:10186000BCE1300001F05EFA03000B3B1C2B00DDF5
:10187000ACE11D22D31A5A460100DA4008398E40E5
:101880001300334399465B468B40984600233C4CFB
:101890000026241A03939FE751465A46114329D143
:1018A000002293460232B1E7594601431ED05B46FF
:1018B000002B00D19EE1584601F034FA03000B3BA7
:1018C0001C2B00DD8FE102005946083A91408B46FF
:1018D0001D21CB1A5146D9400B0059460B435146A6
:1018E0009B469140264B00221B1A8FE700230122C2
:1018F0009B468BE75146032288E700239846013335
:1019000004260024039367E70323B14603930C26C0
:1019100062E7032A00D15CE2019B012A00D0E4E1E6
:1019200013409C4600230024002298460021120305
:10193000130B0A0D12051A432305124C4046224090
:10194000134362465B00D2075B081343190007B0DC
:101950003CBC90469946A246AB46F0BD002380228F
:101960009C4612039846034CE0E70023014C0022FA
:101970009846DBE7FF07000001FCFFFF0CF20008C0
:101980000DFCFFFFFFFF0F80D94500D939E100D1E1
:1019900034E1002346464D469A46013C5B460A0E1A
:1019A0001B021A430B02170C039313041B0C390080
:1019B000280090460193FEF7C5FB0200019B834679
:1019C0005A43280039009146FEF742FC350C0904C1
:1019D0000D43A9450DD95B464544013BA84500D9B7
:1019E0003AE1A94500D837E102235B429C464544D1
:1019F000E3444B46EB1A390018000493FEF7A2FBB0
:101A0000019B05004343390004989946FEF720FCEA
:101A1000330409041B0C0B43994509D943446A1E3E
:101A2000984500D91AE1994500D817E1023D434491
:101A30004A469B1A5A4612042A4303999346100CAD
:101A40000A0C914609045A46090C4E460D00120430
:101A5000120C4543059151437243704352190E0CC9
:101A6000B218954203D980256D02AC466044150C2E
:101A700009041204090C28185218834200D2CEE03F
:101A800000D1C8E01D1A53469E1AB24592415242F7
:101A9000AB1A9A46984500D117E139001800FEF7B5
:101AA00051FB019B05004343390050460493FEF768
:101AB000CFFB04980B04310C1943884209D94144E7
:101AC0006B1E884500D907E1884200D804E1023D39
:101AD0004144049BCB1A180039000493FEF732FBF3
:101AE000019B82464343390004980193FEF7B0FB03
:101AF00001980B043104090C194388420DD953464F
:101B00004144013B884500D9E8E0884200D8E5E03F
:101B100002235B429C464144E244019B2D04CE1AC1
:101B200051462943059D4F462A000B04080C1B0C07
:101B30005A4345437B4378435B19170CFB189D427E
:101B400003D980256D02AC4660441D0C12041B04B1
:101B5000120C28189B18864200D293E000D18EE028
:101B600001231943A04BE318002B00DC99E04A073E
:101B700000D09EE05A46D20106D55A469B4B1A40E9
:101B800080239346DB00E318994A934268DD0123E2
:101B9000029A984C1A400023944698460022C5E6C3
:101BA00080224B46120313420AD05B46134206D1F1
:101BB0001A431203120BAC4688468E4CB6E64B46CF
:101BC0001A431203120BBC468A4CAFE603005A4676
:101BD000283B9A4000239146984657E6584601F024
:101BE000A1F8203040E603005246283B9A400021ED
:101BF000934677E601F096F820305FE6884500D2FC
:101C0000C7E64B46DE075D0843465B081E43434676
:101C1000DB079A46C2E60025924500D333E7039ED0
:101C20005946B446E244B245AD416D424544EB18D5
:101C30000139984507D2984200D97FE000D1BCE035
:101C40001D1A8B461FE79845FAD1039D5545F2D9D9
:101C500043468B461D1A16E79B46CAE61500E7E683
:101C60005A46C90852070A435B0590465C0D5A461E
:101C70000123029952021940120B8C4656E6002BA2
:101C800000D16FE746444A1EB04529D9110086426B
:101C900000D065E7039A934200D061E762E7012133
:101CA00049420120C21A382A21DD029B03409C468A
:101CB00038E60F220A40042A00D15BE70A00111D12
:101CC000914292415242934454E7474BE318002B10
:101CD000E5DD01225242F2E71D00FAE69A461CE7D2
:101CE000B04239D86ED011003AE702933AE71F2A82
:101CF0003CDC20239B1A0C005846994098404B1E10
:101D000099415B46D440D340204308431A0043071F
:101D100009D00F230340042B05D00100081D884281
:101D20009B415B42D21813023AD50123029A012447
:101D30001A400023944698460022F7E502214942C2
:101D40008C46039DE344AC46E244AA45AD416D4256
:101D50004544ED182D1A96E68A1E03994D008D42D2
:101D6000894149424144761803958FE71F2040423C
:101D7000C31A5846D8400300202A28D040205D4688
:101D8000821A954029434A1E914119430723002294
:101D90000B4009D00F2300220B400800042BBDD1BB
:101DA000010053075202120BC90819430123884648
:101DB0000299002419408C46B8E55245BED88B469E
:101DC000002560E6039D9D42C6D3110062E7002511
:101DD000D8E780225B4612031A43019B1203120BC1
:101DE0009C468846034CA1E5FF030000FFFFFFFE71
:101DF000FE070000FF070000F0B54F464646D646F6
:101E00005C00C0B51F03DB0F9A46174B0E034D0055
:101E100084468046360B6D0DC90F91463F0B640D0D
:101E200001209D4208D09C4201D0A5420BD01CBC91
:101E300090469946A246F0BD63463343F7D1AC4283
:101E4000F5D13A43F3D10120BE42F0D1C845EED1DD
:101E5000514507D0002DEAD163461E433000461E8F
:101E6000B041E4E70020E2E7FF070000F0B5454697
:101E7000DE4657464E46E0B51F033D0B2C4F0E0382
:101E80004C00AB465D008446360B640DC90F90468E
:101E90006D0DDB0FBC422AD0254FBD422DD0002C4A
:101EA0000FD130430700814678427841C0B2002DFF
:101EB00017D15F463A4314D14B460020002B0AD07D
:101EC00006E0002D02D15846024301D0994218D0B5
:101ED0004842012108433CBC90469946A246AB4685
:101EE000F0BD0028F2D00120013B1843F3E7370092
:101EF0000743D1D002204042EDE75F461743CED0E2
:101F0000F8E7AC42E4DC03DA481E01210843E2E7CB
:101F10005E45DDD806D000205E45DCD20123481E98
:101F20001843D8E7C445D3D80020C445F6D3D2E738
:101F3000FF070000F0B54E464546DE4657465C00BA
:101F4000E0B51F03DB0F99462A4B0E034D00C90F66
:101F50008446360B6D0D8B4690463F0B640D9D42BB
:101F600020D0244B9C4222D0002D12D1304343423A
:101F70004341DBB2002C1FD0002B0CD04B4601207C
:101F8000013B034318003CBC90469946A246AB4631
:101F9000F0BD002C16D0CB4517D05B46594201232B
:101FA0000B43EFE7310002230143EBD1D9E73900BE
:101FB00002231143E6D1D7E73A43DDD100230028BD
:101FC000E0D0EAE73A43E6D1E7E7A542E5DC05DB06
:101FD000BE42E2D807D00023BE42D3D259460123E5
:101FE00001390B43CEE7C445D7D80023C445F5D308
:101FF000C8E7C046FF070000F0B557464546DE4635
:102000004E46E0B50C0398464E00230B87B0070000
:1020100092469B46760DCD0F002E6BD06D4B9E42A7
:1020200035D080245B46420F2404DB0014431C435C
:10203000C3009946684BA3469C460023002766448C
:10204000029343461C035A00DB0F5046240B520DEB
:10205000984600D176E05F4B9A426DD08023410FC5
:102060001B040B435C49E4008C461C43C300002066
:1020700062444146B6186940721C01919446074378
:102080000F2F00D9B0E0554ABF00D25997465B46A2
:102090000343994600D087E000239B46023308277C
:1020A0000293CEE742460192022867D0032800D16E
:1020B0000EE2012800D062E10023002400229946AC
:1020C00001990140CDB2002112030B0D120B1B052B
:1020D0001343434A240513401C436400ED0764087E
:1020E0002C434846210007B03CBC90469946A24686
:1020F000AB46F0BD034399464FD05B46002B00D161
:1021000089E1584600F00EFE03000B3B1C2B00DD5E
:102110007AE11D22D31A3A0001005C46DA40083900
:102120008C4013008F4023439B46B94600232D4E1D
:102130000027361A029384E7534623432AD100240A
:10214000022096E75346234320D0002C00D157E1CC
:10215000200000F0E7FD03000B3B1C2B00DD49E1F4
:102160001D21CB1A51460200D9405346083A9440EB
:1021700093400C431B4A121A00207AE70125019B69
:10218000144C1D400023002299469CE700240022A5
:1021900001206EE7534603206BE700239B46013383
:1021A0000427002602934CE7032381460C27029361
:1021B00047E780220023002512039946054C82E759
:1021C0005C464B4602986FE75C464B460195029889
:1021D0006AE7C046FF07000001FCFFFF4CF2000861
:1021E000FFFF0F800DFCFFFF4A464946170C1A0CF3
:1021F0001B041B0C08041900000C41431500884601
:1022000019007D437943039589462900150045430C
:102210004D44029545462D0CAA46029D5544A945BC
:1022200006D98A46802149028946CA44514603910B
:10223000290C0491414609042D04090C8846290003
:10224000250C24044144240C059121004143884677
:10225000210079438A466843414650448146080C30
:1022600048446F43824503D98021490289464F443F
:10227000010C894639004944029141460F040499F2
:102280003F0C88460004C0198044414604915946D9
:102290000F0C0904090C884659438A4639005143FA
:1022A000894641464A435146090C8B467B43D21826
:1022B0005A44934203D980235B029B46D94451463A
:1022C0000904090C8A46414661437C43130C1204FD
:1022D0004B445244A1468A463C0041466C434D4320
:1022E00051464D440F0C7D19A94503D9802149025F
:1022F00088464444049F0399B84641448B4683452D
:10230000804141428846514608042F04000C3F1882
:102310005846029910188946904292414F44BA4655
:10232000524299469346C244D144CB448F42BF4166
:10233000C245894199459B41934592417F4249421B
:102340002D0C52420F435B4213437F19FF185B462B
:102350003C19DB0D059A64021C43430213435D1EC6
:10236000AB415A46C00D034352021343E20156D516
:1023700001205A0803401343E207134364085A48F4
:10238000604400284DDD5A0709D00F221A40042A64
:1023900005D01A1D9A429B415B42E4181300E201EA
:1023A00004D58020514AC00014406044504A9042F5
:1023B00000DDE3E60125DB0862071A436402019BA6
:1023C0009146220B4405640D1D407CE6802259464F
:1023D0001203114208D0144206D122431203120BF9
:1023E00045469946434C6EE65B461A431203120B70
:1023F000404C68E603005446283B9C400023B9E665
:1024000000F090FC2030A6E60300283B9F4000230C
:10241000BB4699468AE600F085FC203074E6B44657
:10242000ADE701252A1A382A06DD019B00241D404C
:1024300000230022994646E61F2A21DC20252000A1
:10244000AD1A1E00AB40A840D6405D1EAB413043E4
:102450001843D440430709D00F230340042B05D071
:102460000300181D98429B415B42E418230221D5CA
:102470000125019B01241D4000230022994622E6EC
:102480001F2521006D42281AC1400800202A1DD0B6
:102490005F35AA1A944023435C1EA34107250343DA
:1024A0001D400022002D09D00F2200241A401800E0
:1024B000042AD6D1030065076402220BDB082B43F4
:1024C00001259946019B00241D40FCE50024E2E71C
:1024D000802201251203224301991203120B0D40A1
:1024E0009946044CEFE5C046FF030000FFFFFFFEE6
:1024F000FE070000FF070000F0B54646D6464F46EF
:102500000C03C0B5CD0F4E00610A440F0C43C1004F
:102510005800400D84468A460F001903500F490A9F
:102520000143C648760DA846DB0FD200844500D192
:10253000D8E001204340AB4200D1A6E06046351A06
:10254000002D00DC05E1002810D10B00134300D161
:10255000D7E06B1E002B00D04BE153469F1ABA45C3
:102560008041641A4042241A01261EE0B34B9E4269
:1025700048D080231B041943382D00DD19E11F2D9D
:1025800000DD4CE120230F005B1B10009A409F40B0
:10259000E840531E9A41E940074317435346DF1B67
:1025A000611ABA45A44164420C1B230200D4C5E061
:1025B0006402650A002D00D1F6E0280000F0B2FBAD
:1025C0000300083B1F2B00DDE9E020223C00D21A6B
:1025D0009D40D4409F4025439E4200DDDBE09E1B92
:1025E000731C1F2B00DD0AE120223800D21A2900BB
:1025F00097402C009140D8407A1E9741DC4000263D
:1026000001430F437B0709D00F233B40042B05D028
:102610003B1DBB42BF417F42E4191F00230225D569
:10262000864B01369E4200D1AFE0854B01251C4010
:1026300043466207FF08640276051743240B760DB4
:102640001D4000212403230B0C0D7E4A24051C434E
:102650001440330523435B00ED075B082B43380030
:1026600019001CBC90469946A246F0BD0125434680
:102670006207FF081743E4081D40704B9E4236D0A6
:1026800024037605240B760DDBE76346F31A002B53
:1026900000DC94E06046002835D068488642B1D01E
:1026A00080273F043943382B00DCFDE00A43170044
:1026B00000217A1E974157445745804109194442E9
:1026C0000C1923023AD55D4B01369E4200D14BE1F5
:1026D00001225B4B1C407B0817401F43E207174356
:1026E00064088FE70800104300D024E721E72300A7
:1026F0003B4300D1B9E18022120314432403240B8D
:102700009FE72E007EE70800104300D1CAE0581E64
:102710008446002800D0E7E05244524580416418C6
:102720004042241817000126230207D50226CFE7CE
:1027300064462C4300D1B3E12C0067467B0700D0F0
:1027400062E76307FF081F4301254346E4081D4075
:1027500093E7002D78D1751C6D056D0D012D00DC02
:10276000F2E05046801A8245BF41651A7F42ED1B58
:102770008446280200D48CE05046171ABA4292418F
:102780000C1B5542651B984614E70125434600245F
:102790001D40002755E72A4CF61A2C4032E73D0031
:1027A00028388540002717E7380000F0BBFA2030B2
:1027B00006E70A43170000217A1E9741EEE6002B38
:1027C00000D0E5E0731C9C465B055B0D012B00DC33
:1027D0009FE01A4B9C4500D1C5E0524452458041D0
:1027E000641840422418E7075208174364086646F5
:1027F00008E71248854200D185E01D00BCE62900AB
:102800001F3EF140202B00D17FE04022D31A9D4093
:102810002F437D1EAF4100240F4300268EE72B007F
:102820000F00203BDF40202D71D040235D1BA940CD
:102830000A43511E8A4100211743AFE6FF070000FB
:10284000FFFF7FFFFFFF0F80002E3ED0B34EB44549
:1028500045D0802636046D423443382D00DDA8E093
:102860001F2D00DD1FE1202627005046761BB740B4
:10287000E84007435046B040461EB041EC40384364
:10288000171ABA4292410C1B5242A41A6646984645
:102890008BE6644667462C4300D08BE60025002675
:1028A0000027EAE61E00ADE61F2B60DC2027F81AA1
:1028B0000F00844687401000D8400743604682409E
:1028C000501E8241D9401743F5E626005046064384
:1028D00005D0ED43002DD3D0904EB445BDD10C00B2
:1028E0001700664698468DE68C4883420BD06346B7
:1028F000D9E6002D00D096E00800104300D1E2E0B8
:102900000C0017009846854E7CE6002580E70021E4
:102910008EE7230050460343002E00D0A8E0002B92
:1029200000D1DEE00B00134300D16BE65244524568
:1029300080416418404224181700230200D4FDE6A9
:10294000774B66461C405DE6250050460543002E49
:10295000CFD1002D4FD10C00144300D1A0E00C00CA
:10296000170098464EE666460024002785E61F00BD
:102970000800203FF8400700202B00D18EE04020C7
:10298000C31A99400A43511E8A410021174392E617
:10299000002E14D126005046064362D0DB43002BA4
:1029A0005CD187189742924164185242A418664637
:1029B00087E650462043441EA041002460E7574E5E
:1029C000B4454ED0802636045B423443382B00DDBC
:1029D0007FE01F2B00DD8BE0202627005046F61AF3
:1029E000B740D84007435046B040461EB041074369
:1029F000DC40BF18D6E70D00154300D102E6504673
:102A0000801A8245BF41651A7F42ED1B8446280229
:102A100000D48DE65046171ABA4292410C1B52421E
:102A2000A41A9846EEE50D00154300D16BE7504619
:102A30006707C00807438020E4080003044207D06A
:102A4000CD08054204D12C009846D70849070F430A
:102A50007B0FE4001C43FF00304ED3E52F4EB445FE
:102A6000B4D10C0017006646CCE500270024E8E549
:102A7000002B39D00B00134300D144E7C00867078F
:102A800007438020E40800030442E1D0CB0803425E
:102A9000DED1D70849070F431C00D9E7002171E7B1
:102AA00000250027E9E52E002700203EF740202DD5
:102AB0002FD04026751BAC4050462043441EA041F9
:102AC00000243843DCE6802400252403134E00272D
:102AD000D3E5504620430700781E87410024BF18E5
:102AE00060E70C0017008DE50C0017000B4E89E520
:102AF0001E002700203EF740202B0CD04026F31A62
:102B00009C4050462043441EA04107430024BF1868
:102B100048E70024D0E70024F3E7C046FF070000A1
:102B2000FFFF7FFF30B5134D0A034B00120B5B0D07
:102B3000C90F0024AB4210DD0F4CA3420FDC8024F0
:102B40000E4D64032243ED1A1F2D0BDD0C48C31AF2
:102B5000DA405442002900D11400200030BD094B56
:102B6000CC18FAE7084CE840A44663449A40024374
:102B7000EFE7C046FE0300001D0400003304000020
:102B800013040000FFFFFF7FEDFBFFFF70B500287F
:102B900030D0C317C4185C40C50F200000F0C2F845
:102BA000174B184A1B1AD21A1F2A18DD164AD21AB6
:102BB0009440002224035B05240B5B0D00211000D0
:102BC00024030A0D240B12052243104C1B0522403E
:102BD00013435B00ED075B082B43190070BD210018
:102BE00091400A000B21081AC4405B052403240B02
:102BF0005B0DE3E70025002300240022DEE7C0464A
:102C00001E0400003304000013040000FFFF0F80C7
:102C100010B5041E28D000F085F8154B154A1B1A74
:102C2000D21A1F2A15DD144AD21A94400022240316
:102C30005B05240B5B0D0021100024030A0D240BFF
:102C4000120522430D4C1B05224013435B0059081B
:102C500010BD210091400A000B21081AC4405B05F9
:102C60002403240B5B0DE6E7002300240022E2E7A7
:102C70001E0400003304000013040000FFFF0F8057
:102C80004100090E4B1C70B5DBB24602750AC40F39
:102C9000012B14DDE0239B006D07360BCB180021C0
:102CA0000A0D280012051C4D32435B052A405B08C3
:102CB00013435B00E4075B082343190070BD002940
:102CC00014D1002D1ED0280000F02CF80A281CDC9E
:102CD0000B232A001B1ADA40030015339D400F4BCB
:102CE00012031B1A5B05160B5B0DD8E7002D06D0EF
:102CF000320B802636036D071643094BCFE7084B8E
:102D00000026CCE700230026C9E703002A000B3B7E
:102D10009A400025E3E7C046FFFF0F8089030000CB
:102D2000FF0700001C2101231B04984201D3000C63
:102D300010391B0A984201D3000A08391B0998422E
:102D400001D30009043902A2105C40187047C04644
:102D50000403020201010101000000000000000064
:102D600010B5002903D1FFF7DDFF203002E0081C79
:102D7000FFF7D8FF10BDC0460020704707B501908F
:102D8000019804F019FC07BD8023094A5B05916B8B
:102D900010B50B43936302F0E1FA02F025FB082320
:102DA000044A11680B43136002F014FB10BDC046C7
:102DB0000010024000200240042300B599B00A939D
:102DC000002314930133FF330AA80C9302F050FB45
:102DD000002801D004F0F4F920230193802301A8F6
:102DE0005B02029302F0CCFE002801D004F0E8F967
:102DF0008023074ADB02116D02200B43136500227A
:102E0000110001F0C7FF022001F0F4FF19B000BD6E
:102E10000010024010B50BF043FA10BD10B504F0DD
:102E20005BFA10BD013800B5072807D8FDF76CF92B
:102E30000808060406060604062000BD0720FCE775
:102E40000520FAE700B595B01422002101A80BF087
:102E5000D0FB3822002106A80BF0CBFB02230693FF
:102E6000109380231B0301221293802309921B04D9
:102E70000F3206A80A92139302F0FAFA002801D042
:102E800004F09EF98023114A5B05916B0B43936319
:102E90000F4B10491A681140802212010A431A6030
:102EA00010211A0053680B40FCD10F22012101921E
:102EB00001A80C3A029203930493059302F088FD53
:102EC000002801D004F07CF915B000BD00100240CC
:102ED00000700040FFE7FFFF044B1868044B1B68BD
:102EE0005840044B1B6858407047C0465000F81FBC
:102EF0005400F81F6400F81F1149124A0B6810B5FE
:102F000014681B191B0EC37114680B681B191B0C6A
:102F1000837114680B681B191B0A437112680B68D4
:102F20009B180371084B1A68120EC2701A68120CB3
:102F300082701A68120A42701B68037010BDC04686
:102F40005000F81F6400F81F5400F81F124910B514
:102F50000B78002B1ED1012210480A70104903641F
:102F600001608021090641600721C361836183609C
:102F7000C36003624362C3620363802382630261AE
:102F800003324261074AC163516B9B000B43536399
:102F900001F0FAFC10BDC0462C01002030010020D9
:102FA000002401400010024013B50A4C2378002B86
:102FB0000FD1FFF7CBFF084B1B680193984704F034
:102FC000C3FB04F019FB0BF027FA04F0C5F801234A
:102FD000237013BD2D010020ACF3000873B506006B
:102FE00000201E4B1B78834236D008231C494A68B8
:102FF0001A42FCD080231B4D1B4C6A6B9B00134371
:103000006B630021200001F075FE184B69460093A8
:10301000174B2000019301F019FE802369465B01E4
:1030200020000193009601F011FE200001F080FDC8
:1030300001212000494201F0A7FD200001F002FE1D
:103040000222236880B299680A439A6003221A60B8
:103050006B6B084A13406B6376BDC0462C010020A1
:10306000007000400010024030010020FFFF070008
:1030700001100000FFFDFFFF70B51248FFF7AEFF23
:1030800000250100A84206D00F4B18880F4B58436B
:10309000FDF758F805000E48FFF7A0FF0D4B6843F9
:1030A0000A491C88FDF74EF8031B502058430A4B71
:1030B00000021988091BFDF7CFF8F0235B01C01847
:1030C00080B270BD000002447800F81FB80B000009
:1030D000000004487A00F81F7E00F81F10B50F4862
:1030E000FFF77CFF01000020814216D00C4B0D4CF5
:1030F00018886043FDF726F80200FE20A2420CD893
:10310000094900208A4208D99621FE305043074BD6
:10311000C900C018FDF716F8C0B210BD0000024487
:103120007800F81FB80B0000070700001006F9FF31
:1031300010B5EFF3108472B604F046FB084B5B68E1
:10314000984704F079FD0423064A11680B43136085
:1031500084F310880121080002F020F910BDC04658
:10316000ACF300080070004013B5EFF3108472B6A2
:103170000122134B19680A431A600422196811428C
:10318000FCD08022196852040A431A6080229204FB
:1031900019681142FCD00322D9680A430C21DA6075
:1031A000DA680A400C2AFBD104F09EFA054B1B6832
:1031B0000193984704F0C2FC84F3108813BDC04605
:1031C00000100240ACF3000810B50121002002F00D
:1031D000CDF810BD7047C046FDE77047704710B589
:1031E00001F05CFB10BD10B504F0A0FC10BD10B5E3
:1031F00004F094FC10BD10B504F0BEF910BD10B57C
:10320000012002F09FF8022002F09CF810BD10B5DA
:10321000042002F097F8082002F094F810BD10B5D1
:10322000102002F08FF8202002F08CF8402002F0ED
:1032300089F8802002F086F88020400002F082F8B1
:103240008020800002F07EF88020C00002F07AF832
:103250008020000102F076F88020400102F072F830
:103260008020800102F06EF88020C00102F06AF830
:103270008020000202F066F810BD00008022104B92
:10328000520019680A431A60DA680E490A40DA6087
:103290001A680D490A4001211A609A688A439A60A7
:1032A0001A680A490A401A60DA6809490A40DA606D
:1032B00000221A618022074B12059A607047C046AF
:1032C000001002400C40FF88F6FFF6FEFFFFFBFFF8
:1032D000FFFF02FF00ED00E0002210B50749D30018
:1032E0005C58844203D8CB189C68A04203D30132B7
:1032F000152AF4D1FEE7187910BDC046C8F20008BF
:10330000054B5A79002A05D130331A78002A01D1A9
:1033100001321A707047C04658130020014B1860E4
:103320007047C04690010020014B18797047C04695
:103330005813002030B5A02587B0012414220021A5
:1033400001A80BF056F90323ED0501AA210028007E
:103350000493029403F05AFF22002100280003F096
:10336000C9FF2000FFF70AFD002301AA2100280061
:10337000029303F04BFF0620FFF700FD07B030BDBE
:1033800070B506000C001500402100220A4803F029
:10339000B1FF8020304304F055FA6519AC4205D1E5
:1033A00001224021044803F0A5FF70BD207804F0FD
:1033B00049FA0134F2E7C0460004005007B56B46F5
:1033C000D971073301221900FFF7DAFF07BD0000AA
:1033D000114B70B5114998600500FCF739FF104B8F
:1033E0000802C0180D49FCF7ADFE0C490400280086
:1033F000FCF7A8FE00022418210CC9B20620FFF732
:10340000DDFF210AC9B20720FFF7D8FFE1B208208B
:10341000FFF7D4FF70BDC04658130020093D0000DF
:10342000841E000070B506000C001500402100222B
:103430000A4803F05FFF7F20304004F003FA65196B
:10344000AC4205D101224021044803F053FF70BD76
:10345000002004F0F7F920700134F1E70004005077
:1034600013B56B46DC1D01222100FFF7DBFF20783E
:1034700016BD0000F0B50D0085B0002803D001286E
:103480005AD000204EE0714C2720268CFFF7E8FF31
:10349000F823984301308019FFF778FB0B00E11CFB
:1034A000C97F0200002000293ED16949FDF760FE76
:1034B000060030200F00FFF7D3FFF923984335D1E2
:1034C0000020002132003B00FDF752FE06002800DC
:1034D0000F00FFF75BFB02000B0030003900FDF727
:1034E00047FE0B00611DC97F02000020002920D18A
:1034F0000021FDF73DFE0022564BFEF77DFD060044
:10350000E0690F00FFF784FB02000B003000390078
:10351000FEF73EF90022504BFEF76EFD0BF0A2FDC8
:10352000FDF736F805B0F0BD0021BFE7002048499F
:10353000C8E78021C905DCE7444C636C022B00D945
:103540007DE0464ADB00D3181E685F680120A36C4B
:10355000ED0098400193FFF719FB02000B003000CB
:103560003900FEF715F902000B0000203849FEF77C
:103570000FF9230006000F004E331888FFF706FBF3
:103580000022374BFDF7F4FD32003B00FEF734FD1F
:1035900023000290039152331878019B50349B0012
:1035A0000001C01A23781422591E8B411C305B4243
:1035B0001A402818801AFFF72BFB244B04004C33C9
:1035C00018780D00431E9841019B4000181A800096
:1035D000FFF71EFB02000B0020002900FEF7D8F8C1
:1035E0000BF03CFC04000D00184B4D3318780430F0
:1035F000FFF7CCFA22002B00FEF7FEFC002200238E
:1036000004000D00FCF73EFF00281BD00022114BE8
:1036100020002900FDF7ACFD32003B00FEF7ECFC7A
:10362000029A039BFDF7A4FD00220B4BFEF7E4FC7E
:103630000C4A0D4BFDF79CFD0BF092FC70E7002649
:10364000002783E700200349E6E7C046581300201F
:103650000000F03F0000204000408F40B0F2000822
:10366000000011402B8716D9CEF7EF3F10B5002888
:1036700004D001280AD00120404206E01120FFF7C3
:10368000EFFE4008C0B2404200B210BD1B20FFF761
:10369000E7FE8B38F8E7000070B50C4D04002B688E
:1036A00001201B69002C04D00020984720002B68C3
:1036B0005B6998470120FFF7D3FE07230100994378
:1036C0002143C9B20120FFF779FE70BD90010020AF
:1036D00010B506480AF026FE05480AF023FE002031
:1036E000FFF7DAFF0022034B1A7110BDF013002020
:1036F000C01300205813002010B506480AF012FE2F
:1037000005480AF00FFE0120FFF7C6FF0022034B19
:103710001A7110BDF0130020C013002058130020B0
:10372000F8B5504C06006579002D03D0012D4ED020
:10373000002729E0E31D4020DF7FFFF791FE0321F2
:103740000840093101434020FFF738FE4120FFF7D0
:1037500087FE3F2149420143C9B24120FFF72EFEB7
:103760003520FFF77DFE3F23184023003E331870BD
:103770001E210D20FFF722FE230030331D70230091
:1037800031331D70A587658780220021520036489D
:103790000AF02FFF01232371002E07D0334D310093
:1037A00028000AF0EBFD28000AF03EFD6379002BAB
:1037B00050D10520FFF770FF002F07D12C4DE16A93
:1037C00028000AF0DBFD28000AF02EFDF8BD2300DA
:1037D00055331B7841273320002B27D0FFF740FEBD
:1037E0003843C1B23320FFF7E9FD19213B20FFF731
:1037F000E5FD230056331F78230053331B78002B3D
:103800001FD01D211120FFF7D9FD4020FFF728FE12
:10381000332101404020FFF7D1FD00210F20FFF7A9
:10382000CDFD00210D20FFF7C9FDADE7FFF718FE24
:103830000100B9432943C9B23320FFF7BFFD1D2161
:10384000D4E71F211120FFF7B9FD4020FFF708FE44
:103850003F21DEE70520002F00D10620FFF71CFFE7
:10386000B4E7C0465813002098010020F013002050
:10387000D813002070B5254D010028000AF07EFD08
:10388000234C6379002B0AD0012B23D0022328007C
:1038900023710AF0C9FC0320FFF7FEFE70BD402033
:1038A000FFF7DEFD032108400D3101434020FFF703
:1038B00085FD4120FFF7D4FD3E2101404120FFF767
:1038C0007DFD3520FFF7CCFD3F23184023003E331C
:1038D0001870DBE7230053331B78002B0DD0F52144
:1038E0001120FFF76BFD4020FFF7BAFD33210140A7
:1038F00040200143FFF762FDC8E7F7211120FFF7E1
:103900005DFD4020FFF7ACFD3F21F0E7C013002034
:103910005813002070B50B4C6379012B10D1FA219C
:103920001120FFF74BFD4020FFF79AFD0325A84328
:10393000C1B24020FFF742FD07202571FFF7ACFE22
:1039400070BDC0465813002010B504000120FFF7D9
:1039500087FD194B02061AD501225A715A79A242E3
:1039600014D05C71012C14D0FFF7B2FE0120FFF7D8
:1039700077FD7F2101400120FFF720FD002140203D
:10398000FFF71CFD30214120FFF718FD10BD00227C
:10399000E3E7FFF79DFE2000FFF762FD802149422B
:1039A0000143C9B22000FFF709FD00214020FFF7C5
:1039B00005FD0021E7E7C0465813002070B51A4BFB
:1039C0001A4C186021001A480AF024FC21001948FA
:1039D0000AF020FC210018480AF01CFC174E0120B8
:1039E000336800241B689847FFF7A4FC0020FFF70A
:1039F00053FE336812489B689847124D605D2D193D
:103A0000FFF7A2FF0334A9786878FFF7D7FC332CBF
:103A1000F3D10020FFF798FF00220B4B1A71336897
:103A20005B689847023070BD940100204D46000845
:103A3000C0130020F0130020D813002090010020B4
:103A40000400002078F3000858130020F8B50E0099
:103A500017001D000400FFF777FF3000FFF7B8FCE8
:103A60000520FFF719FE0120FFF788F90AF097FCFF
:103A7000060030000AF099FCA84204D30124FFF7A5
:103A800027FE2000F8BD2000FFF7F0FDB842F0DD72
:103A90000024F4E770B500240120FFF755FFFF2153
:103AA0001120FFF78BFC0520FFF7F6FD250001260E
:103AB0003000FFF763F92C20FFF7D2FC3040A04024
:103AC00001340543202CF3D1FFF702FE280070BD1E
:103AD000F0B58DB0069312AB160004CB04001B8822
:103AE0000892019314AB1B880CAA059315AB1B78A5
:103AF0000D00029316AB1B78039317AB1B7804934E
:103B000018AB1B780A9319AB1B780B9319239B18DE
:103B1000DF7F1D239B18DB7F0993FFF715FF002C28
:103B200004D0012C00D18BE00DB0F0BD6A46A04C52
:103B3000089B127AA361E31CDA776A46127B231D85
:103B4000DA776A46127C631DDA7724216A465218B6
:103B50001278A31DDF77E31DDA776B469B88E66159
:103B6000238465613000FFF753F802000B00060064
:103B70000F0000208F49FDF70BFE00228E4BFEF751
:103B80003BFA069007910598FFF700F802000B003A
:103B900006980799FEF730FA0022884BFEF72CFAB8
:103BA000FCF7F6FC32003B00E06285490020FDF79F
:103BB000EFFDFCF7EDFC84B2210A0220FFF7FEFBCB
:103BC000E1B20320FFF7FAFB2800FFF785FB0100B5
:103BD0001220FFF7F3FB0898FFF77EFB010013208C
:103BE000FFF7ECFB019B2520190AFFF7E7FB6B466B
:103BF00026201979FFF7E2FB029B0399002B00D1E5
:103C0000FF213220FFF7DAFB3020FFF729FC6F217C
:103C100008400021029B8B4200D18039049B1D018A
:103C200028430143C9B23020FFF7C8FB3120FFF71A
:103C300017FC402101433120C9B2FFF7BFFB73E7F6
:103C40005B4B69461A00097E4D32117069461A00B5
:103C500089884E32118069461A00097A50321170F3
:103C600069461A00097B5132117069461A00097CB5
:103C700052321170282069461A0009180978533207
:103C8000117069461A00043009180978543211700D
:103C90001A006946553217701A0008380918097851
:103CA00056325D649E6411700C2E7DD8052E6ED93F
:103CB000002D65D132000B3A012A65D801224C3320
:103CC0001D201A70FFF7CCFB069B394CD90023004E
:103CD0004C331B78AD011943049B5800029B0143F0
:103CE0009B0019432943C9B21D20FFF767FB1E2023
:103CF000FFF7B6FB059B99050C23890F184001437C
:103D000030010143C9B21E20FFF758FB6B461F204C
:103D1000197DFFF753FB019B2020190AFFF74EFB8B
:103D20006B4621201979FFF749FB029B002B03D03A
:103D300003992220FFF742FB230053331B78002B0B
:103D40000ED04B20FFF78CFB802149420143C9B2C2
:103D50004B205434FFF732FB21782420FFF72EFB51
:103D600007243120062E14D1FFF77AFB0521A0434A
:103D70000143C9B23120FFF721FB0C2137205CE75A
:103D8000012D01D10C2E99D04C33002298E7062644
:103D9000FAE7FFF765FB0321A0430143C9B23120D5
:103DA000FFF70CFB0A21E9E70C26012DECD885E78B
:103DB000581300200000F03F0000204000408F40DA
:103DC00080847E41F0B50E0089B01F000EAB10CB91
:103DD00005001B780392049310AB1B88009311AB72
:103DE0001B78019312AB1B78029313AB1B780593DE
:103DF00014AB1B78079315AB1B780693FFF7A4FD54
:103E0000854B30001B68DB689847002D03D0012DDF
:103E100064D009B0F0BD814B039A69461A616A46C5
:103E2000128809791A84DA1CD1776946097A5A1DF1
:103E3000D1776946097E9A1DD177169A1E73DC6187
:103E40009A625F610398FEF7E3FE0022744BFDF770
:103E50009FFCFCF79DFB86B2310A0420FFF7AEFA07
:103E6000F1B20520FFF7AAFA2000FEF7D1FE02000A
:103E70000B0000206B49FDF78BFCFCF789FB84B23B
:103E8000210A0220FFF79AFAE1B20320FFF796FA1F
:103E9000009B2520190AFFF791FA6B462620197816
:103EA000FFF78CFA3020FFF7DBFA6F21019B01400E
:103EB000002B01D180256D42029B1801014329434B
:103EC000C9B23020FFF77AFA3120FFF7C9FA402152
:103ED00001433120C9B2FFF771FA9AE74F4D6A46A4
:103EE0002B0040331E702B00127C4D331A706A4633
:103EF0002B0012884E331A806A462B0012795033F9
:103F00001A706A462B00127D53331A706A462B00D2
:103F1000127F54331A706A462B00127A52331A7089
:103F20006A462B00127E55331A70169B6F64AC6480
:103F3000AB650C2C6CD8052C5DD9002F53D1230018
:103F40000B3B012B53D82B0001224C331A70059BDD
:103F5000002B0FD04B20FFF783FA80214942014309
:103F6000C9B24B20FFF72AFA2B00543319782420CA
:103F7000FFF724FA1D20FFF773FA049B4C35D90094
:103F80002B78BF011943029B07255800019B014371
:103F90009B0019433943C9B21D20FFF70FFA1E20B9
:103FA000FFF75EFA0F21014020010143C9B21E2034
:103FB000FFF704FA009B2020190AFFF7FFF96B4670
:103FC00021201978FFF7FAF93120062C15D1FFF7D7
:103FD00047FA0521A8430143C9B23120FFF7EEF9A2
:103FE0000C21372077E7012F01D10C2CABD02B000F
:103FF00000224C33AAE70624F9E7FFF731FA032140
:10400000A8430143C9B23120FFF7D8F90A21E8E7F4
:104010000C24012FEBD896E79001002058130020C4
:1040200080844E4080847E4130B5FA248BB0A40059
:1040300054430D00FFF7CCF905230293962300208B
:104040005B01020029000790069005900490039000
:104050000190009308940300FFF7B4FE3120FFF7AE
:10406000FFF94025A843C1B23120FFF7A7F9280086
:10407000F021FFF7A3F9A0214120FFF79FF9084D98
:10408000210028000AF07AF90222064B28001A7152
:104090000AF0CAF80320FFF7FFFA0BB030BDC046A4
:1040A000C01300205813002070B52B4C2179012932
:1040B00002D0022948D070BD6379002B17D0012BA4
:1040C000F9D1533423780221002BF4D01220FFF7CA
:1040D00075F9224B1B68002BEDD05C69002CEAD0EF
:1040E0001C20FFF7BDF93F231840A047E3E723005A
:1040F00030331970258E012DDDD119480AF012F9DF
:104100002300112031331D70FFF7AAF92300400866
:104110003233404218701B20FFF7A2F905001C2023
:10412000FFF79EF92D020F4A2843C3B25343000AFA
:10413000504380331B0A181860630C20FFF790F976
:10414000383440092070B6E76379012BB3D153347A
:104150002378002BAFD0B9E758130020940100203A
:10416000D8130020093D000070B5124B5D79012D78
:1041700011D11220FFF774F92840041E0E4E0BD007
:1041800005211220FFF71AF93368002B03D09B6931
:104190002800002B0BD170BD04211220FFF70EF96F
:1041A0003368002BF7D09B69002BF4D02000984790
:1041B000F1E7C046581300209401002010B50A0012
:1041C00001000020FFF7DCF810BD0000F7B56B46DA
:1041D0003A4CDE1D317065790700002D03D0012DAA
:1041E0002ED000201CE03178A5876187E31CDB7F9F
:1041F000002B18D101213000FFF7E0FF3278531E69
:104200003F2B14D823003F3325001A703F35380068
:104210002978FFF7D3FF2B78A28FA06A9B18A3877A
:10422000FFF728FBF7BD3220FFF7C8F8E6E792B2A8
:10423000390023480AF065F9230020223F33E3E7E1
:10424000230055331B783320002B2BD0FFF708F9C0
:1042500041239843C1B23320FFF7B0F819213B2026
:10426000FFF7ACF823003178643322201970FFF790
:10427000A5F800210E20FFF7A1F800210D20FFF77F
:104280009DF80120FFF7ECF8F823984304D1FFF7DD
:1042900033FA0120FEF772FD38003178FFF78EFF08
:1042A000A06DBDE7FFF7DCF84123010099432943E6
:1042B000C9B23320FFF782F81D21D0E75813002040
:1042C0009801002010B50A0001000020FFF7AAF8AD
:1042D00010BD0000F7B56B46DD1D0023884C2B7028
:1042E0002379012B03D0022B00D1F5E0F7BD6379D0
:1042F000002B24D0012BF9D140211220FFF75EF8CA
:104300001220FFF7ADF8202128702B787D4E7E4DCE
:104310000B4200D195E01220FFF750F823005633EE
:104320001B78002B00D12371300009F0FBFF2B68B4
:10433000002BDBD01B69002BD8D09847D6E7631D34
:10434000DB7F724E704F002B37D03F20FFF788F88D
:1043500028702B789B0730D40B213E20FFF72EF8D6
:1043600010213F20FFF72AF8664809F0DBFFE31D24
:10437000DD7F002D14D1300009F0D4FF25713B689A
:10438000002B03D01B69002B00D09847220000238C
:1043900030321370220031321370A3876387A5E790
:1043A0000D20FFF75DF840210143C9B20D20FFF752
:1043B00005F8300009F038FFE1E7618F544D00291E
:1043C00030D1A38F002B2DD1E31CDB7F002B24D118
:1043D00001315048FFF776FFA08F618F091AC9B2EB
:1043E0002818FFF76FFF638F4648A38709F09AFFED
:1043F000E31DDB7F002B17D13000237109F092FF02
:104400003B68002BC2D09E68002EBFD03222618F45
:10441000A25600232800B047B8E73220FFF720F863
:104420006087D9E7A08FD9E70D20FFF719F8402161
:104430000143C9B20D20FEF7C1FF300009F0F4FEC0
:10444000DEE71920FFF70CF8270040B20230801099
:10445000603738701A20FFF703F800232100FB565D
:1044600002B212116231002B33DA8B3B1B18D318C6
:10447000132027000B80FEF7F3FF643738701020FD
:10448000FEF7EEFF01000D20FEF798FF3978204F70
:104490003800FFF717FF230056331B78002B00D19D
:1044A0002371300009F03EFF2B68002B00D11DE77F
:1044B0009D68002D00D119E72300220060331B788E
:1044C000643462320021525E5BB221783800A84722
:1044D0000CE703008B3BCAE70F4809F023FF637921
:1044E000012B03D108211220FEF768FF002323715E
:1044F000054B1B68002B00D1F8E61B681BE7C04684
:1045000058130020F013002094010020D81300203D
:104510009801002092130020C013002070B5304C89
:104520002179012902D0022943D070BD6379002B83
:1045300013D0012BF9D12B4809F0F4FE8021122071
:10454000FEF73CFF00232371274B1B68002BECD0A8
:10455000DB68002BE9D09847E7E7638F002B09D190
:10456000A38F002B06D1E31CDB7F002B16D11F4845
:10457000FFF7A8FE25003E35618FA28F2B78891AA0
:104580001B4899420FDB013BD9B28018FFF79AFE16
:10459000A28F2B78013A9B18A387C6E73220FEF73B
:1045A0005FFF6087E6E7C9B28018FFF78BFE638F75
:1045B000F2E76379002BB8D125003F35638FA28FD6
:1045C00029789B1A0A488B4205DD8018FFF7F6FD13
:1045D0002B78A28FDFE7D9B28018FFF7EFFDE6E76F
:1045E00058130020F01300209401002092130020A3
:1045F0009801002070B504000D00FFF7A5F9002C0C
:1046000002D0012C0AD070BD064B0333DB7F002B98
:10461000F9D129003220FEF7D1FEF4E7290023204A
:10462000F9E7C0465813002010B504000120FFF739
:104630008BF9054B34215C331C70002C00D1122106
:104640003920FEF7BBFE10BD5813002070B52D4C6D
:104650002379012B02D0022B32D070BD6379002B5D
:1046600020D122003032137022000B2131323E2043
:104670001370A3876387FEF7A1FE10213F20FEF78A
:104680009DFEE31DDB7F204D002B14D00D20FEF797
:10469000E7FE40210143C9B20D20FEF78FFE28003E
:1046A00009F0C2FD194B1B68002BD6D0DB68002B2C
:1046B000D3D09847D1E72800237109F033FEF1E702
:1046C000FEF738FE0020FEF7E7FF0025104EA85D3C
:1046D0007619FFF739F90335B1787078FEF76EFE79
:1046E000332DF3D10020FFF72FF923005C33187826
:1046F000FFF79AFF00232371044B1B68002BACD0FB
:104700005B68D4E758130020D813002094010020E0
:1047100078F30008034B10B51B685B6898470230BC
:1047200010BDC046900100200020704770477047C0
:10473000034B0122032800D000221A707047C046A4
:10474000581300200120704770B506000920FEF7BD
:1047500087FE05005A20FEF783FE311C04000E2E52
:1047600000DD0E210B0601D5074B197870230131AE
:104770001D402943C9B20920FEF720FE21005A201E
:10478000FEF71CFE70BDC046ABF3000810B586B046
:104790001422002101A809F02CFF1148FEF7BEFDEC
:1047A000104B80210293A02002230F4C039301AAF7
:1047B0000133C900C005049302F028FD01AA2000BE
:1047C000082102F023FD01AA2000202102F01EFD95
:1047D00001AA1021200002F019FD06B010BDC0464C
:1047E0001C000020000011100004005010B586B01D
:1047F0001422002101A809F0FCFE0E4B8021A0200C
:10480000029302230C4C01AAC900C005039302F0D5
:10481000FDFC01AA2000082102F0F8FC01AA2000FA
:10482000202102F0F3FC01AA1021200002F0EEFC8E
:1048300006B010BD000011100004005070B50368F0
:1048400004008021A0200C4D0022C900C00502F008
:1048500029FD280063680022082102F023FD2800BA
:10486000A3680022202102F01DFD2800E368002239
:10487000102102F017FD70BD000400500223064A0B
:1048800010B5116803200B431360FEF775FAFEF7AD
:104890007BFA002010BDC04600200240024A136887
:1048A000013313607047C04608140020014B18689C
:1048B0007047C046081400200121024A53688B4308
:1048C00053607047005801400221024A53688B43ED
:1048D00053607047005801400421024A53688B43DB
:1048E0005360704700580140084B13B50400084955
:1048F0001868FBF727FC44430194019B002B00D16F
:1049000013BD019B013B0193F7E7C0460000002067
:1049100040420F000321036870B59A6804000A4002
:10492000012A0DD1196811420AD0002070BD102350
:104930000120A26D1343A365E36D0343E365F5E72F
:1049400099680F4A1142F2D101259A6828002A433A
:104950009A60FFF7C9FFFFF7A9FF060023681B68ED
:104960002B42E2D1FFF7A2FF801B0A28F6D91023C1
:10497000A26D01201343A365E36D1D43E565D5E7F3
:10498000170000807047000070B504000120002C63
:1049900019D0A36D002B06D122005432E36520000C
:1049A0001370FFF7EFFFA36DDB0604D40422236826
:1049B0009868104008D01023A26D01201343A3650E
:1049C00000235434237070BDA26D5349114002225C
:1049D0000A43A265032299681140504A012902D175
:1049E0001D680D4219D180266568F60569004908E1
:1049F000B14203D0802109068D4272D11969890024
:104A00008908196119690D431D611825D968A943E1
:104A1000D960D968A5682943D9601168404D2940FB
:104A20001160A16B156849062943116080229968BD
:104A30005205114202D199680A439A60DA683949ED
:104A40000A402169DA60DD68E268022900D10420A9
:104A5000666B216A32432A434D032A43256B6D005E
:104A60002A43A569AD032A43E569ED032A430243BE
:104A7000C220DA60A26AFF30824204D0E56AD868B8
:104A80002A430243DA60626A012A06D1002934D13E
:104A90008022D96852020A43DA60216C1A6901291E
:104AA00033D12148A56C02401A61626C18692A430F
:104AB000E56C2A4302431A611A69114319610721FF
:104AC0005A6900208A435A615A69E16B0A435A6164
:104AD0000322E065A36D93431A0001231343A365EA
:104AE00071E71969114E890089081961116831400F
:104AF000116011680D43156087E72021A06D014307
:104B0000A165E16D0A43E265C7E701210A42D6D0FB
:104B10001A698A431A61D2E7FDFEFFFF08270140A8
:104B2000FFFFFFFD1902FEFF03FCFFFFFFFFC3FFB6
:104B3000036870B59B68040002205B071AD4250047
:104B400054352B78012B15D001232B70E369012BF1
:104B500011D1A36D0B4A00201A4080235B00134340
:104B60001C22A3652368E06528701A609968183ACA
:104B70000A439A6070BD2000FFF7CCFE0028F9D1EF
:104B8000E7E7C046FEF0FFFFF8B5456904000E00F8
:104B9000082D0DD003680120DB680C25034207D0E7
:104BA0002023A26D54341343636000232370F8BDA7
:104BB000FFF77CFE070023681A682A4223D0802270
:104BC000A16D92000A43A265C022D9681201114268
:104BD00012D1226A002A0FD11A6812070CD59A68DE
:104BE000520723D40C215A688A435A60A26D144993
:104BF000114001220A43A2650020A2698242D6D157
:104C00000C221A60D3E7721CD6D0002E08D10423E0
:104C1000A26D543413436360002303202370C6E75E
:104C2000FFF744FEC01B8642C5D2F0E72022A16DEB
:104C30000A43A2650122E16D0A43E265DCE7C04652
:104C4000FEFEFFFF0368186C7047000070B504009B
:104C50005434237806000D000220012B0BD032685B
:104C60000138916820704B0706D52022B16D0A43A8
:104C7000B2650022227070BD80201A496E682B68D0
:104C8000C0028E421BD0966A5903490B3143916290
:104C9000034208D08023144A1B0411680A200B43E6
:104CA0001360FFF721FE2B689B0305D580230E4A76
:104CB000DB0311680B43136000202070DBE7916A6F
:104CC0005D036D0BA9439162034204D00649074876
:104CD0000A6802400A609B03EED5034A0449136840
:104CE0000B40E8E70110000008270140FFFF7FFFAD
:104CF000FFFFBFFFF8B5050054352B7804000220F4
:104D0000012B3FD0012303222B70236898681040A9
:104D1000012802D11A68024235D1A26D1C49114006
:104D200002220A430321A265DE68DA688A43DA6058
:104D30008022996812060A439A60FFF7B7FD0700C0
:104D400023689A68002A0EDB0322D96816400E43B6
:104D5000DE60A36D002093431A0001231343A36573
:104D600000232B700EE0FFF7A1FDC01B0A28E7D936
:104D70001222A36D012093431A0010231343A3654D
:104D800000232B70F8BD2023A26D1343A365E7E732
:104D9000FDFEFFFF70B58901002812DB8308134A6E
:104DA00003249B009B18FF222040A0401400C02534
:104DB000844011408140AD005E59A64331435951B2
:104DC00070BD03240F23C0B203402040A040FC3438
:104DD0002500214085408140083B054A9B089B00F7
:104DE0009B18DA69AA431143D961E9E700E100E0C1
:104DF00000ED00E0002805DB1F2318401E3B834028
:104E0000014A13607047C04600E100E0030030B57E
:104E10000120002B2AD0981DC27FD2B2002A01D1D6
:104E2000591DCA7702221968C2770C68344ADD68B6
:104E300014409A682A431D692A435D692A439D6983
:104E40002A43DD692A431D6A2A4322430A602D4A08
:104E500091420CD10F242C4A1168A14311601168B2
:104E60005B680B4313600123C377002030BD274AE2
:104E7000914208D1F024244A1168A14311605B6873
:104E800011681B01EDE7224A914208D11E4A214CCC
:104E90001168214011605B6811681B02E1E71E4A3E
:104EA000914208D1184A1D4C1168214011605B687D
:104EB00011681B03D5E71A4A914208D1124A194CCE
:104EC0001168214011605B6811681B04C9E7164A2C
:104ED000914208D10C4A154C1168214011605B6861
:104EE00011681B05BDE7124A9142BCD1064A114C1C
:104EF0001168214011605B6811681B06B1E7C0466C
:104F00000FC0FFFF08000240A80002401C00024042
:104F100030000240FFF0FFFF44000240FF0FFFFFA0
:104F200058000240FFFFF0FF6C000240FFFF0FFF40
:104F300080000240FFFFFFF0F0B50225471DFE7F15
:104F40002C00012E1ED00126841DFE77E577046813
:104F50002568B543256063608368102B14D1A26077
:104F6000E160022322681343236004232268134371
:104F7000236008232268134323600123226813431C
:104F8000236000242000F0BDA160E260E9E700009A
:104F900010B5841DE37F022B04D00423C363033BBD
:104FA000180010BD0E21026813688B4313600123A3
:104FB00011689943116017498A4211D016490F337D
:104FC0008A420DD0154B9A4218D0154B9A4218D0F0
:104FD000144B9A4218D0144B9A4218D080235B0489
:104FE000124A53600123E3770024826B431DDC7770
:104FF0001300A242D4D090472300D1E780235B0066
:10500000EEE780235B01EBE780235B02E8E7802388
:105010005B03E5E7080002401C000240300002404C
:1050200044000240580002406C0002400000024070
:1050300070B503685B4D5C4E040029680822B342DA
:1050400015D05A487832834211D0594A934200D140
:1050500084E0584A934200D183E0574A934200D1FA
:1050600082E0564A934200D181E08022120511422B
:1050700016D008201968014212D0196881431960BE
:1050800001236A60E26B13430422E363A31DDA7712
:105090000022631DDA77636B934201D020009847AA
:1050A000236829680422B34211D040483C3283422D
:1050B0000DD03F4A93425DD03E4A93425DD03E4A76
:1050C00093425DD03D4A93425DD08022D20411428A
:1050D00012D00420196801420ED01968890602D442
:1050E0001968814319606A600522A31DDA77236B72
:1050F000002B01D020009847236829680222B34280
:1051000011D02A481E3283420DD0294A93423DD005
:10511000284A93423DD0284A93423DD0274A9342A1
:105120003DD080229204114217D00220196801421A
:1051300013D01968890602D41968814319606A601E
:105140000122E36BE363A31DDA770022631DDA77A4
:10515000E36A934201D02000984770BD802212017B
:1051600085E78022120282E7802212037FE78022F5
:1051700012047CE78022D200A9E78022D201A6E7B0
:105180008022D202A3E78022D203A0E780229200ED
:10519000C9E780229201C6E780229202C3E78022FB
:1051A0009203C0E700000240080002401C000240D9
:1051B0003000024044000240580002406C000240AF
:1051C000F0B5554A0B688218541EA24185B0019370
:1051D000002305320392019ADA4001D105B0F0BDF7
:1051E00001259D40019A2A40009200D191E04A6831
:1051F00094461022644694432200013C022A1FD1A7
:1052000007240F271C40A400A740DA089200821848
:10521000166ABE430F69A7403E43166203245E0030
:10522000B4408268A243CC68B440224382606246A4
:10523000D206D20F9A404468AC432243426001E058
:10524000012CEBD9032634005D00AC406246E443F8
:105250003240AA40076827403A430260C2681440BF
:105260008A68AA4014436246C460D20051D5012521
:105270002A4C0F27626B2A431D003540AD00AF401A
:105280006263274A9C08A400A418A268BA43A02716
:105290000292FF050022B84210D0224F0132B842DC
:1052A0000CD0214F0132B84208D0204F3200B84212
:1052B00004D01F4E0132B04200D0039AAA40674684
:1052C000029D2A43A2601B4A009C1668009DE4438D
:1052D0003543FF0301D43500254067461560566805
:1052E000009D3543BF0301D4350025406746556016
:1052F0009668009D3543FF0201D43500254067467E
:105300009560D568009E2E43BF0201D425402E0033
:10531000D66001335FE7C04600E4FFAF00100240F3
:10532000000001400004005000080050000C005034
:105330000010005000040140002A01D08161704734
:105340008162FCE7044B10B55A69104202D05861E3
:10535000FDF764FD10BDC046000401401021024A63
:1053600013688B43136070470070004010B503242E
:10537000084A1368A343184310600420064A1369BF
:1053800083431361012901D130BF10BD40BF20BF4D
:1053900020BFFAE70070004000ED00E010B50324E4
:1053A0000A4A1368A343184310600422084B186983
:1053B00002431A61012905D130BF04211A698A43C9
:1053C0001A6110BD40BF20BF20BFF6E7007000404B
:1053D00000ED00E08023034ADB0011680B431360FB
:1053E0007047C046007000408023034A9B0011684C
:1053F0000B4313607047C04600700040F022174B0B
:1054000030B5D96811420BD000230121144802683D
:105410008A431A430260006808405840084030BD83
:105420008021C0229D6B49050E4C52010D420AD0CD
:1054300023681A40C0235B019A42E5D10A4BC01889
:1054400043424341E1E79D6B294399632168074C3F
:105450000A40996B21409963ECE7C0460010024076
:1054600000200240007000400040FFFFFFFFFFEF00
:10547000F0B5036885B00400DB074ED423689B07B2
:1054800000D5A1E02368DB0635D50C23BD4DEA68C5
:105490001A4200D0EBE02B689B0502D5E369002B94
:1054A00050D0E0226B68606A12021340984200D824
:1054B000CBE0FFF7A3FF002844D16B68B24A13404A
:1054C000626A13436B606A68236A12021B06120A3F
:1054D00013436B60636AEA68590B802301311B0236
:1054E0008B401206A949120F8A5C0320D340A84AB8
:1054F0001360FDF741FC23681B0700D5EEE023682D
:105500005B0700D511E123689B0600D594E1A16AF1
:10551000002900D0C4E1002015E00C21994DEB6872
:105520000B40082B08D08023EA685B020A408A42BD
:105530000BD1EA681A4208D02B689B039ED563689A
:10554000002B9BD1012005B0F0BD62689A4213D1B7
:105550002A6813432B60FFF7A9F980260700B602DB
:105560002B68334200D089E7FFF7A0F9894BC01BB5
:105570009842F5D90320E6E7A021C9028A4205D165
:1055800080222968D2020A432A60E1E7296882481A
:105590000140296029680B400393039B7F492B68D6
:1055A0000B402B60002AD6D1FFF780F98026070038
:1055B000B6022B68334200D160E7FFF777F9754BED
:1055C000C01B9842F5D9D5E70C216E4DEA680A4018
:1055D000042A06D0EB680B408B4210D1EB68DB034A
:1055E0000DD42B685B0702D5E368012BAAD16A684A
:1055F00023696B491B020A4013436B6042E7E26870
:105600002B68002A10D009218B4313432B60FFF72E
:105610004DF9042607002B683342E8D1FFF746F91D
:10562000C01B0228F7D9A5E7012293432B60FFF79F
:105630003DF9042607002B68334200D122E7FFF72B
:1056400035F9C01B0228F6D994E76B684E4A13401F
:1056500003436B606A68236A12021B06120A134333
:105660006B60FFF7CBFE002800D133E76AE7E36900
:10567000002B20D080232A685B0013432B60FFF7A8
:1056800015F980260700B6002B6833420DD06B68F1
:105690003D4A1340626A13436B606A68236A1202D0
:1056A0001B06120A13436B6025E7FFF7FFF8C01BC8
:1056B0000228E9D95EE72B683A4A802613402B601E
:1056C000FFF7F4F80700B6002B68334200D112E769
:1056D000FFF7ECF8C01B0228F6D94BE762690123FB
:1056E000284D002A10D02A6D022613432B65FFF7A0
:1056F000DDF807002B6D334200D000E7FFF7D6F846
:10570000C01B0228F6D935E72A6D02269A432A657E
:10571000FFF7CCF807002B6D334200D1EFE6FFF71F
:10572000C5F8C01B0228F6D924E780230021154DB7
:105730005B05AA6B00911A4204D1AA6B1343AB63B9
:10574000012300938027184E7F0033683B4208D026
:105750008022A3685200934228D12A6D13432B65FF
:1057600049E033683B433360FFF7A0F801903368AA
:105770003B42EDD1FFF79AF8019BC01A6428F6D995
:10578000F8E6C04600100240FF1FFFFF8CF2000841
:105790000000002088130000FFFFFEFFFFFFFBFF5B
:1057A000FFE0FFFFFFFEFFFF00700040002B16D15F
:1057B0002B6D604A802713402B652B6D5E4ABF001E
:1057C00013402B65FFF772F806002B6D3B422AD081
:1057D000FFF76CF8594B801B9842F6D9CAE6A02116
:1057E000C9008B420DD18023296DDB000B432B6553
:1057F0002B6D1A432A65FFF759F880270600BF0072
:105800000EE02B6D4B4A13402B652B6D4A4A13401B
:10581000A5E7FFF74BF8494B801B984200D9A9E652
:105820002B6D3B42F5D0009B012B00D06BE6AB6BA0
:10583000434A1340AB6366E6A1690123414D424AE6
:10584000002918D0A96802261943A960696B0B4387
:105850006B638023116A9B010B431362FFF726F8E9
:105860000700AB68334200D051E6FFF71FF8C01BBA
:105870000228F6D97EE6A96802269943A960136A30
:1058800032490B401362FFF711F80700AB6833424F
:1058900000D13CE6FFF70AF8C01B0228F6D969E6FA
:1058A0000C22284D0120EB681340934200D14AE6B8
:1058B0002B68274A13402B6002292BD1FEF7F6FFF5
:1058C00080260700B6042B6833421DD1216BE36AA2
:1058D000EA680B431F490A401343626B8024134359
:1058E000EB6080232A685B0413432B60FEF7DEFF26
:1058F0000600A4042B68234200D00CE6FEF7D6FF76
:10590000801B0228F6D935E6FEF7D0FFC01B02281F
:10591000D9D92FE6FEF7CAFF80240600A4042B681D
:10592000234200D1F7E5FEF7C1FF801B0228F6D91C
:1059300020E6C046FFFEFFFFFFFBFFFF88130000CD
:10594000FFFFFFEF0010024000000140FFDFFFFFFC
:10595000FFFFFFFEFFFF02FF0C22184B10B5D968B6
:105960000A40082A26D00C2A06D0042A1AD11B681D
:10597000DB0621D4124810BD8A021248120F825C45
:105980000902D868890F0131C00304D50E4850437D
:10599000FAF7D8FBEFE71B68DB0601D50B48F6E703
:1059A0000748F4E780205B6800021B045B0F0133AB
:1059B0009840E0E70448DEE70448DCE700100240D6
:1059C0000024F400A4F2000800127A0000093D004F
:1059D000F7B50122534C06002368019113408B4216
:1059E00028D33268930731D4D30737D401232268F0
:1059F00001991A40914200D285E032684A4C53071F
:105A000000D587E0130706D5E26833694749DB0014
:105A10000A401343E360FFF79FFFE368444A1B0615
:105A20001B0FD35CD840434B18600320FDF7A4F94B
:105A300000200AE02368019993430B432360236805
:105A40001340019A9A42CCD00120FEBDF020364985
:105A5000CB688343B0680343CB60C5E7324D7268BF
:105A60002B68022A19D19B03EED50321EB688B43E7
:105A70001343EB60FEF71AFF73680700022B19D17E
:105A80000C22EB681340082BB0D0FEF70FFF2A4B17
:105A9000C01B9842F4D90320D7E7032A02D19B0107
:105AA000E3D4D1E7012A02D15B07DED4CCE79B0522
:105AB000DBD4C9E7032B0CD10C22EB6813409342D3
:105AC00000D193E7FEF7F2FE1B4BC01B9842F3D9BF
:105AD000E1E7012B11D00C22EB68134200D185E7DE
